:100000000A128A11F62F00308A000408840A820737
:100010000034BF348634DB34CF34E634ED34FD3481
:100020008734FF34EF343F3406345B344F34663466
:0A0030006D347D3407347F346F34E3
:100A0A008130831203139F000E30831603139F0055
:100A1A00080083120313390888000610C730F00053
:100A2A00162DF00B152D192D1A2D831203130614EA
:100A3A003A0888008610C730F000232DF00B222DCB
:100A4A00262D272D8312031386143B0888000611CE
:100A5A00C730F000302DF00B2F2D332D342D83129B
:100A6A00031306153C0888008611C730F0003D2D97
:100A7A00F00B3C2D402D412D8312031386150800DF
:100A8A007708780403194A2D4B2D782D0130FB0085
:100A9A00572D01300310F70DF80DFF3E031D4F2DA2
:100AAA000130FB07F81F5A2D5B2D4E2D78087A026C
:100ABA00031D612D77087902031C642D652D6B2DAA
:100ACA007708F9027808031CFA03FA0201300310C6
:100ADA00F80CF70CFF3E031D6C2D0130FB02031DC1
:100AEA00772D782D5B2D7A08F8007908F700080031
:100AFA00F900C530831203139F057908F20002300A
:100B0A000310F20DFF3E031D852D0310720D9F0485
:100B1A002130F200F20B8F2D831203131F151F19B8
:100B2A00972D982D942D831603131E08F200063074
:100B3A000310F20CFF3E031D9D2D7208F300F40111
:100B4A00831203131E08F500F6010310F50DF60DC6
:100B5A000310F50DF60D73087504F7007408760492
:100B6A00F8007708F0007808F1000800F401F501B0
:100B7A00700871040319C22DC32DF82D0130F60037
:100B8A00CF2D01300310F00DF10DFF3E031DC72DCF
:100B9A000130F607F11FD22DD32DC62D01300310D7
:100BAA00F40DF50DFF3E031DD42D71087302031DCC
:100BBA00E02D70087202031CE32DE42DEB2D700862
:100BCA00F2027108031CF303F302741401300310D8
:100BDA00F10CF00CFF3E031DEC2D0130F602031D53
:100BEA00F72DF82DD32D7508F1007408F0000800D0
:100BFA000030FC000030FB000030FA000030F90041
:100C0A00701C082E092E202E7408F9077508031186
:100C1A000318013E0319122EFA0776080311031866
:100C2A00013E0319192EFB07770803110318013E29
:100C3A000319202EFC070130F8000310F40DF50DFE
:100C4A00F60DF70DF80B222E01300310F30CF20CFF
:100C5A00F10CF00CFF3E031D2A2E73087204710476
:100C6A007004031D392E3A2E052E7C08F3007B08EA
:100C7A00F2007A08F1007908F000080000308312C7
:100C8A000313AB000030AA000030A9000030A8000E
:100C9A0023082204210420040319542E552EA02EC1
:100CAA000130AC00632E0130FD000310A00DA10D30
:100CBA00A20DA30DFD0B5A2E0130AC07A31F662E01
:100CCA00672E582E0130FD000310A80DA90DAA0D9C
:100CDA00AB0DFD0B692E23082702031D7E2E220869
:100CEA002602031D7E2E21082502031D7E2E2008C2
:100CFA002402031C812E822E912E2008A402210890
:100D0A00031C210FA5022208031C220FA602230896
:100D1A00031C230FA702281401300310A30CA20CF2
:100D2A00A10CA00CFF3E031D922E0130AC02031D44
:100D3A009F2EA02E672E2B08A3002A08A20029089E
:100D4A00A1002808A0000800E830F0000330F100F4
:100D5A007D08F3007C08F2000A128A11BB250A12E8
:100D6A008A11710883120313AB007008AA000A30B3
:100D7A00F7000030F8006430F0000030F1007D0820
:100D8A00F3007C08F2000A128A11BB250A128A11A2
:100D9A007108FA007008F9000A128A1145250A1228
:100DAA008A11780883120313A3007708A2000A3075
:100DBA00F7000030F8000A30F0000030F1007D083A
:100DCA00F3007C08F2000A128A11BB250A128A1162
:100DDA007108FA007008F9000A128A1145250A12E8
:100DEA008A11780883120313A5007708A4000A3031
:100DFA00F7000030F8007D08FA007C08F9000A12B2
:100E0A008A1145250A128A11780883120313A7004A
:100E1A007708A6002A082B040319142F152F242F4C
:100E2A002A080B3E84000A128A1103200A128A1128
:100E3A00A000A1012008A8002108A900262FA801C6
:100E4A00A9012808B9002208013E84000A128A1161
:100E5A0003200A128A11BA0024080B3E84000A12DF
:100E6A008A1103200A128A11BB0026080B3E84004D
:100E7A000A128A1103200A128A11BC00080083167A
:100E8A00031388018312031388018316031386014F
:100E9A000F3083120313860086158619552F592F92
:100EAA008312031306155C2F831203130611061906
:100EBA005F2F632F831203138614662F8312031383
:100ECA0086108618692F6D2F831203130614702F4C
:100EDA008312031306100A128A1105250A128A11AF
:100EEA0083120313B701B8010A128A110E250A12D6
:100EFA008A11013083120313B7070318B80A0030A6
:100F0A00B80700303802323003193702031C8E2F1B
:100F1A008F2F792F00300A128A117D250A128A1121
:100F2A00710883120313B6007008B5000030A300DD
:100F3A000030A2000330A100FF30A000FF30AD0056
:100F4A000130AE000030AF000030B0003508F000CC
:100F5A003608F100F201F3010030F7000030F60024
:100F6A001330F5008830F4000A128A11FD250A129E
:100F7A008A11700883120313AD0771080318710FE1
:100F8A00C72FC82FAE0772080318720FCD2FCE2FA6
:100F9A00AF0773080318730AB0073008A7002F08B1
:100FAA00A6002E08A5002D08A4000A128A114326BD
:100FBA000A128A11831203132308B4002208B30009
:100FCA002108B2002008B1003208FD003108FC00F7
:100FDA000A128A11A9260A128A11752F0A128A116F
:100FEA00002883120313B901BA01BB01BC018301B2
:060FFA000A128A11442FC7
:00000001FF
